{
  "contractName": "Fundraiser",
  "abi": [
    {
      "inputs": [
        {
          "internalType": "string",
          "name": "_name",
          "type": "string"
        },
        {
          "internalType": "string",
          "name": "_url",
          "type": "string"
        },
        {
          "internalType": "string",
          "name": "_imageURL",
          "type": "string"
        },
        {
          "internalType": "string",
          "name": "_description",
          "type": "string"
        },
        {
          "internalType": "address payable",
          "name": "_beneficiary",
          "type": "address"
        },
        {
          "internalType": "address",
          "name": "_custodian",
          "type": "address"
        }
      ],
      "stateMutability": "nonpayable",
      "type": "constructor"
    },
    {
      "anonymous": false,
      "inputs": [
        {
          "indexed": true,
          "internalType": "address",
          "name": "previousOwner",
          "type": "address"
        },
        {
          "indexed": true,
          "internalType": "address",
          "name": "newOwner",
          "type": "address"
        }
      ],
      "name": "OwnershipTransferred",
      "type": "event"
    },
    {
      "inputs": [],
      "name": "beneficiary",
      "outputs": [
        {
          "internalType": "address payable",
          "name": "",
          "type": "address"
        }
      ],
      "stateMutability": "view",
      "type": "function"
    },
    {
      "inputs": [],
      "name": "description",
      "outputs": [
        {
          "internalType": "string",
          "name": "",
          "type": "string"
        }
      ],
      "stateMutability": "view",
      "type": "function"
    },
    {
      "inputs": [],
      "name": "imageURL",
      "outputs": [
        {
          "internalType": "string",
          "name": "",
          "type": "string"
        }
      ],
      "stateMutability": "view",
      "type": "function"
    },
    {
      "inputs": [],
      "name": "name",
      "outputs": [
        {
          "internalType": "string",
          "name": "",
          "type": "string"
        }
      ],
      "stateMutability": "view",
      "type": "function"
    },
    {
      "inputs": [],
      "name": "owner",
      "outputs": [
        {
          "internalType": "address",
          "name": "",
          "type": "address"
        }
      ],
      "stateMutability": "view",
      "type": "function"
    },
    {
      "inputs": [],
      "name": "renounceOwnership",
      "outputs": [],
      "stateMutability": "nonpayable",
      "type": "function"
    },
    {
      "inputs": [
        {
          "internalType": "address",
          "name": "newOwner",
          "type": "address"
        }
      ],
      "name": "transferOwnership",
      "outputs": [],
      "stateMutability": "nonpayable",
      "type": "function"
    },
    {
      "inputs": [],
      "name": "url",
      "outputs": [
        {
          "internalType": "string",
          "name": "",
          "type": "string"
        }
      ],
      "stateMutability": "view",
      "type": "function"
    },
    {
      "inputs": [
        {
          "internalType": "address payable",
          "name": "_beneficiary",
          "type": "address"
        }
      ],
      "name": "setBeneficiary",
      "outputs": [],
      "stateMutability": "nonpayable",
      "type": "function"
    }
  ],
  "bytecode": "0x60806040523480156200001157600080fd5b50604051620011f9380380620011f9833981810160405281019062000037919062000486565b620000576200004b6200011960201b60201c565b6200012160201b60201c565b85600190805190602001906200006f92919062000336565b5084600290805190602001906200008892919062000336565b508360039080519060200190620000a192919062000336565b508260049080519060200190620000ba92919062000336565b5081600560006101000a81548173ffffffffffffffffffffffffffffffffffffffff021916908373ffffffffffffffffffffffffffffffffffffffff1602179055506200010d81620001e560201b60201c565b5050505050506200082c565b600033905090565b60008060009054906101000a900473ffffffffffffffffffffffffffffffffffffffff169050816000806101000a81548173ffffffffffffffffffffffffffffffffffffffff021916908373ffffffffffffffffffffffffffffffffffffffff1602179055508173ffffffffffffffffffffffffffffffffffffffff168173ffffffffffffffffffffffffffffffffffffffff167f8be0079c531659141344cd1fd0a4f28419497f9722a3daafe3b4186f6b6457e060405160405180910390a35050565b620001f56200027c60201b60201c565b600073ffffffffffffffffffffffffffffffffffffffff168173ffffffffffffffffffffffffffffffffffffffff16141562000268576040517f08c379a00000000000000000000000000000000000000000000000000000000081526004016200025f906200062a565b60405180910390fd5b62000279816200012160201b60201c565b50565b6200028c6200011960201b60201c565b73ffffffffffffffffffffffffffffffffffffffff16620002b26200030d60201b60201c565b73ffffffffffffffffffffffffffffffffffffffff16146200030b576040517f08c379a000000000000000000000000000000000000000000000000000000000815260040162000302906200064c565b60405180910390fd5b565b60008060009054906101000a900473ffffffffffffffffffffffffffffffffffffffff16905090565b828054620003449062000764565b90600052602060002090601f016020900481019282620003685760008555620003b4565b82601f106200038357805160ff1916838001178555620003b4565b82800160010185558215620003b4579182015b82811115620003b357825182559160200191906001019062000396565b5b509050620003c39190620003c7565b5090565b5b80821115620003e2576000816000905550600101620003c8565b5090565b6000620003fd620003f784620006a2565b6200066e565b9050828152602081018484840111156200041657600080fd5b620004238482856200072e565b509392505050565b6000815190506200043c81620007f8565b92915050565b600081519050620004538162000812565b92915050565b600082601f8301126200046b57600080fd5b81516200047d848260208601620003e6565b91505092915050565b60008060008060008060c08789031215620004a057600080fd5b600087015167ffffffffffffffff811115620004bb57600080fd5b620004c989828a0162000459565b965050602087015167ffffffffffffffff811115620004e757600080fd5b620004f589828a0162000459565b955050604087015167ffffffffffffffff8111156200051357600080fd5b6200052189828a0162000459565b945050606087015167ffffffffffffffff8111156200053f57600080fd5b6200054d89828a0162000459565b93505060806200056089828a0162000442565b92505060a06200057389828a016200042b565b9150509295509295509295565b60006200058f602683620006d5565b91507f4f776e61626c653a206e6577206f776e657220697320746865207a65726f206160008301527f64647265737300000000000000000000000000000000000000000000000000006020830152604082019050919050565b6000620005f7602083620006d5565b91507f4f776e61626c653a2063616c6c6572206973206e6f7420746865206f776e65726000830152602082019050919050565b60006020820190508181036000830152620006458162000580565b9050919050565b600060208201905081810360008301526200066781620005e8565b9050919050565b6000604051905081810181811067ffffffffffffffff82111715620006985762000697620007c9565b5b8060405250919050565b600067ffffffffffffffff821115620006c057620006bf620007c9565b5b601f19601f8301169050602081019050919050565b600082825260208201905092915050565b6000620006f3826200070e565b9050919050565b600062000707826200070e565b9050919050565b600073ffffffffffffffffffffffffffffffffffffffff82169050919050565b60005b838110156200074e57808201518184015260208101905062000731565b838111156200075e576000848401525b50505050565b600060028204905060018216806200077d57607f821691505b602082108114156200079457620007936200079a565b5b50919050565b7f4e487b7100000000000000000000000000000000000000000000000000000000600052602260045260246000fd5b7f4e487b7100000000000000000000000000000000000000000000000000000000600052604160045260246000fd5b6200080381620006e6565b81146200080f57600080fd5b50565b6200081d81620006fa565b81146200082957600080fd5b50565b6109bd806200083c6000396000f3fe608060405234801561001057600080fd5b50600436106100935760003560e01c8063715018a611610066578063715018a61461010e5780637284e416146101185780638da5cb5b14610136578063b90497e014610154578063f2fde38b1461017257610093565b806306fdde03146100985780631c31f710146100b657806338af3eed146100d25780635600f04f146100f0575b600080fd5b6100a061018e565b6040516100ad91906107f2565b60405180910390f35b6100d060048036038101906100cb9190610696565b61021c565b005b6100da610268565b6040516100e791906107d7565b60405180910390f35b6100f861028e565b60405161010591906107f2565b60405180910390f35b61011661031c565b005b610120610330565b60405161012d91906107f2565b60405180910390f35b61013e6103be565b60405161014b91906107bc565b60405180910390f35b61015c6103e7565b60405161016991906107f2565b60405180910390f35b61018c6004803603810190610187919061066d565b610475565b005b6001805461019b906108e7565b80601f01602080910402602001604051908101604052809291908181526020018280546101c7906108e7565b80156102145780601f106101e957610100808354040283529160200191610214565b820191906000526020600020905b8154815290600101906020018083116101f757829003601f168201915b505050505081565b6102246104f9565b80600560006101000a81548173ffffffffffffffffffffffffffffffffffffffff021916908373ffffffffffffffffffffffffffffffffffffffff16021790555050565b600560009054906101000a900473ffffffffffffffffffffffffffffffffffffffff1681565b6002805461029b906108e7565b80601f01602080910402602001604051908101604052809291908181526020018280546102c7906108e7565b80156103145780601f106102e957610100808354040283529160200191610314565b820191906000526020600020905b8154815290600101906020018083116102f757829003601f168201915b505050505081565b6103246104f9565b61032e6000610577565b565b6004805461033d906108e7565b80601f0160208091040260200160405190810160405280929190818152602001828054610369906108e7565b80156103b65780601f1061038b576101008083540402835291602001916103b6565b820191906000526020600020905b81548152906001019060200180831161039957829003601f168201915b505050505081565b60008060009054906101000a900473ffffffffffffffffffffffffffffffffffffffff16905090565b600380546103f4906108e7565b80601f0160208091040260200160405190810160405280929190818152602001828054610420906108e7565b801561046d5780601f106104425761010080835404028352916020019161046d565b820191906000526020600020905b81548152906001019060200180831161045057829003601f168201915b505050505081565b61047d6104f9565b600073ffffffffffffffffffffffffffffffffffffffff168173ffffffffffffffffffffffffffffffffffffffff1614156104ed576040517f08c379a00000000000000000000000000000000000000000000000000000000081526004016104e490610814565b60405180910390fd5b6104f681610577565b50565b61050161063b565b73ffffffffffffffffffffffffffffffffffffffff1661051f6103be565b73ffffffffffffffffffffffffffffffffffffffff1614610575576040517f08c379a000000000000000000000000000000000000000000000000000000000815260040161056c90610834565b60405180910390fd5b565b60008060009054906101000a900473ffffffffffffffffffffffffffffffffffffffff169050816000806101000a81548173ffffffffffffffffffffffffffffffffffffffff021916908373ffffffffffffffffffffffffffffffffffffffff1602179055508173ffffffffffffffffffffffffffffffffffffffff168173ffffffffffffffffffffffffffffffffffffffff167f8be0079c531659141344cd1fd0a4f28419497f9722a3daafe3b4186f6b6457e060405160405180910390a35050565b600033905090565b60008135905061065281610959565b92915050565b60008135905061066781610970565b92915050565b60006020828403121561067f57600080fd5b600061068d84828501610643565b91505092915050565b6000602082840312156106a857600080fd5b60006106b684828501610658565b91505092915050565b6106c881610882565b82525050565b6106d781610870565b82525050565b60006106e882610854565b6106f2818561085f565b93506107028185602086016108b4565b61070b81610948565b840191505092915050565b600061072360268361085f565b91507f4f776e61626c653a206e6577206f776e657220697320746865207a65726f206160008301527f64647265737300000000000000000000000000000000000000000000000000006020830152604082019050919050565b600061078960208361085f565b91507f4f776e61626c653a2063616c6c6572206973206e6f7420746865206f776e65726000830152602082019050919050565b60006020820190506107d160008301846106ce565b92915050565b60006020820190506107ec60008301846106bf565b92915050565b6000602082019050818103600083015261080c81846106dd565b905092915050565b6000602082019050818103600083015261082d81610716565b9050919050565b6000602082019050818103600083015261084d8161077c565b9050919050565b600081519050919050565b600082825260208201905092915050565b600061087b82610894565b9050919050565b600061088d82610894565b9050919050565b600073ffffffffffffffffffffffffffffffffffffffff82169050919050565b60005b838110156108d25780820151818401526020810190506108b7565b838111156108e1576000848401525b50505050565b600060028204905060018216806108ff57607f821691505b6020821081141561091357610912610919565b5b50919050565b7f4e487b7100000000000000000000000000000000000000000000000000000000600052602260045260246000fd5b6000601f19601f8301169050919050565b61096281610870565b811461096d57600080fd5b50565b61097981610882565b811461098457600080fd5b5056fea264697066735822122004f35638c1dce84deb331dae17127906e8157d3ffcb587b08c15774680d2425164736f6c63430008000033",
  "immutableReferences": {},
  "source": "// SPDX-License-Identifier: MIT\n\n\npragma solidity ^0.8.0;\nimport \"@openzeppelin/contracts/access/Ownable.sol\";\n\ncontract Fundraiser is Ownable {\n\n string public name;\n string public url;\n string public imageURL;\n string public description;\n address payable public beneficiary;\n\n constructor(\n     string memory _name,\n     string memory _url,\n     string memory _imageURL,\n     string memory _description,\n     address payable _beneficiary,\n     address _custodian\n )\n     public\n {\n     name = _name;\n     url = _url;\n     imageURL = _imageURL;\n     description = _description;\n     beneficiary = _beneficiary;\n     transferOwnership(_custodian);\n  }\n\n  function setBeneficiary(address payable _beneficiary) public onlyOwner {\n          beneficiary = _beneficiary;\n      }\n}\n",
  "sourcePath": "/Users/tsuru/fundraiser/contracts/Fundraiser.sol",
  "compiler": {
    "name": "solc",
    "version": "0.8.0+commit.c7dfd78e.Emscripten.clang"
  },
  "schemaVersion": "3.4.10",
  "updatedAt": "2022-10-10T08:46:47.998Z",
  "devdoc": {
    "kind": "dev",
    "methods": {
      "owner()": {
        "details": "Returns the address of the current owner."
      },
      "renounceOwnership()": {
        "details": "Leaves the contract without owner. It will not be possible to call `onlyOwner` functions anymore. Can only be called by the current owner. NOTE: Renouncing ownership will leave the contract without an owner, thereby removing any functionality that is only available to the owner."
      },
      "transferOwnership(address)": {
        "details": "Transfers ownership of the contract to a new account (`newOwner`). Can only be called by the current owner."
      }
    },
    "version": 1
  },
  "userdoc": {
    "kind": "user",
    "methods": {},
    "version": 1
  }
}